:100000000C942A000C9434000C9434000C943400AA
:100010000C9434000C9434000C9434000C94340090
:100020000C9434000C9434000C9434000C94340080
:100030000C9434000C9434000C9434000C94340070
:100040000C9434000C9434000C9434000C94340060
:100050000C94340011241FBECFE5D8E0DEBFCDBF25
:100060000E9488040C949A040C940000DF93CF93B0
:10007000CDB7DEB727970FB6F894DEBF0FBECDBF62
:1000800089836A834B838B81882309F074C08981BB
:10009000282F30E03F832E838E819F818130910510
:1000A00059F12E813F81223031052CF48E819F81C0
:1000B000009769F0D2C02E813F812230310589F14D
:1000C0008E819F818330910509F440C0C6C0AAE3A8
:1000D000B0E0EAE3F0E08081482F8A81282F30E009
:1000E00081E090E0022E02C0880F991F0A94E2F787
:1000F000809584238C93B1C0A7E3B0E0E7E3F0E000
:100100008081482F8A81282F30E081E090E0022E04
:1001100002C0880F991F0A94E2F7809584238C937C
:100120009CC0A4E3B0E0E4E3F0E08081482F8A8142
:10013000282F30E081E090E0022E02C0880F991F46
:100140000A94E2F7809584238C9387C0A1E3B0E002
:10015000E1E3F0E08081482F8A81282F30E081E0C0
:1001600090E0022E02C0880F991F0A94E2F7809552
:1001700084238C9372C08B81813009F06EC0898199
:10018000282F30E03D832C838C819D818130910527
:1001900049F12C813D81223031052CF48C819D81E7
:1001A000009761F05AC02C813D812230310571F1F8
:1001B0008C819D8183309105E9F14FC0AAE3B0E0C5
:1001C000EAE3F0E08081482F8A81282F30E081E047
:1001D00090E0022E02C0880F991F0A94E2F7842B48
:1001E0008C933BC0A7E3B0E0E7E3F0E08081482FC9
:1001F0008A81282F30E081E090E0022E02C0880F33
:10020000991F0A94E2F7842B8C9327C0A4E3B0E0F3
:10021000E4E3F0E08081482F8A81282F30E081E0FC
:1002200090E0022E02C0880F991F0A94E2F7842BF7
:100230008C9313C0A1E3B0E0E1E3F0E08081482FAC
:100240008A81282F30E081E090E0022E02C0880FE2
:10025000991F0A94E2F7842B8C9327960FB6F89493
:10026000DEBF0FBECDBFCF91DF910895DF93CF9357
:10027000CDB7DEB727970FB6F894DEBF0FBECDBF60
:1002800089836A834B838B81882309F074C08981B9
:10029000282F30E03F832E838E819F81813091050E
:1002A00059F12E813F81223031052CF48E819F81BE
:1002B000009769F0D2C02E813F812230310589F14B
:1002C0008E819F818330910509F440C0C6C0ABE3A5
:1002D000B0E0EBE3F0E08081482F8A81282F30E006
:1002E00081E090E0022E02C0880F991F0A94E2F785
:1002F000809584238C93B1C0A8E3B0E0E8E3F0E0FC
:100300008081482F8A81282F30E081E090E0022E02
:1003100002C0880F991F0A94E2F7809584238C937A
:100320009CC0A5E3B0E0E5E3F0E08081482F8A813E
:10033000282F30E081E090E0022E02C0880F991F44
:100340000A94E2F7809584238C9387C0A2E3B0E0FF
:10035000E2E3F0E08081482F8A81282F30E081E0BD
:1003600090E0022E02C0880F991F0A94E2F7809550
:1003700084238C9372C08B81813009F06EC0898197
:10038000282F30E03D832C838C819D818130910525
:1003900049F12C813D81223031052CF48C819D81E5
:1003A000009761F05AC02C813D812230310571F1F6
:1003B0008C819D8183309105E9F14FC0ABE3B0E0C2
:1003C000EBE3F0E08081482F8A81282F30E081E044
:1003D00090E0022E02C0880F991F0A94E2F7842B46
:1003E0008C933BC0A8E3B0E0E8E3F0E08081482FC5
:1003F0008A81282F30E081E090E0022E02C0880F31
:10040000991F0A94E2F7842B8C9327C0A5E3B0E0F0
:10041000E5E3F0E08081482F8A81282F30E081E0F9
:1004200090E0022E02C0880F991F0A94E2F7842BF5
:100430008C9313C0A2E3B0E0E2E3F0E08081482FA8
:100440008A81282F30E081E090E0022E02C0880FE0
:10045000991F0A94E2F7842B8C9327960FB6F89491
:10046000DEBF0FBECDBFCF91DF910895DF93CF9355
:1004700000D000D00F92CDB7DEB78A836B8319828C
:100480008A81282F30E03D832C834C815D8141306F
:10049000510541F18C819D818230910534F42C818C
:1004A0003D812115310561F052C04C815D814230A2
:1004B000510551F18C819D8183309105B9F147C07F
:1004C000E9E3F0E08081282F30E08B81882F90E0F5
:1004D000A90102C0559547958A95E2F7CA01817036
:1004E000898335C0E6E3F0E08081282F30E08B81FE
:1004F000882F90E0A90102C0559547958A95E2F7AB
:10050000CA018170898323C0E3E3F0E08081282F52
:1005100030E08B81882F90E0A90102C05595479566
:100520008A95E2F7CA018170898311C0E0E3F0E0A7
:100530008081282F30E08B81882F90E0A90102C0B4
:10054000559547958A95E2F7CA018170898389811B
:100550000F900F900F900F900F90CF91DF91089513
:10056000DF93CF9300D000D0CDB7DEB789836A8305
:100570008981282F30E03C832B838B819C818130C3
:100580009105D1F02B813C81223031052CF48B81F7
:100590009C81009761F01EC02B813C812230310587
:1005A00081F08B819C818330910581F013C0EAE357
:1005B000F0E08A8180830EC0E7E3F0E08A818083E7
:1005C00009C0E4E3F0E08A81808304C0E1E3F0E065
:1005D0008A8180830F900F900F900F90CF91DF91C1
:1005E0000895DF93CF9300D000D0CDB7DEB78983D5
:1005F0006A838981282F30E03C832B838B819C8107
:1006000081309105D1F02B813C81223031052CF4D1
:100610008B819C81009761F01EC02B813C81223030
:10062000310581F08B819C818330910581F013C06D
:10063000EBE3F0E08A8180830EC0E8E3F0E08A819A
:10064000808309C0E5E3F0E08A81808304C0E2E3AF
:10065000F0E08A8180830F900F900F900F90CF91E0
:10066000DF910895DF93CF9300D000D0CDB7DEB7F0
:100670008A838A81282F30E03C832B838B819C8165
:1006800081309105D1F02B813C81223031052CF451
:100690008B819C81009761F01EC02B813C812230B0
:1006A000310581F08B819C818330910581F013C0ED
:1006B000EBE3F0E0808189830EC0E8E3F0E0808125
:1006C000898309C0E5E3F0E08081898304C0E2E327
:1006D000F0E08081898389810F900F900F900F90B7
:1006E000CF91DF910895DF93CF93CDB7DEB780E050
:1006F00060E040E00E94360080E061E040E00E945F
:10070000360080E062E040E00E943600CF91DF9149
:100710000895DF93CF93CDB7DEB780E060E00E940D
:100720003602CF91DF910895DF93CF93CDB7DEB737
:1007300080E061E00E943602CF91DF910895DF935F
:10074000CF93CDB7DEB780E062E00E943602CF9152
:10075000DF910895DF93CF930F92CDB7DEB786E890
:10076000898389818068898389818F7B8983898155
:100770008F7D898389818F7E89838981877F898322
:10078000AAE2B0E0EAE2F0E080818B7F8C9389817D
:1007900082608983898184608983E0E4F0E08981D3
:1007A0008083E9E2F0E083E38083AAE2B0E0EAE25A
:1007B000F0E0808180618C93AAE2B0E0EAE2F0E0B0
:1007C000808188608C930F90CF91DF910895DF93A3
:1007D000CF930F92CDB7DEB7898301C00000EBE263
:1007E000F0E08081829586958770882F90E08170F7
:1007F0009070009799F3ECE2F0E0898180830F908C
:10080000CF91DF910895DF93CF93CDB7DEB701C0CD
:100810000000EBE2F0E08081881F8827881F81308C
:10082000B9F7ECE2F0E08081CF91DF910895DF939A
:10083000CF9300D0CDB7DEB79A83898318C000006C
:10084000EBE2F0E08081829586958770882F90E0BA
:1008500081709070009799F3ACE2B0E0E981FA8181
:1008600080818C9389819A8101969A838983E98119
:10087000FA818081882321F70F900F90CF91DF912B
:100880000895DF93CF9300D000D0CDB7DEB79C831F
:100890008B831A828EE18983EBE2F0E08081881FEE
:1008A0008827881F8130C1F78A81282F30E08B810B
:1008B0009C81DC01A20FB31FECE2F0E080818C93FD
:1008C0008A81282F30E08B819C81FC01E20FF31F8D
:1008D00080818823B1F08A818F5F8A838A81282F63
:1008E00030E08981882F90E0019728173907A4F21A
:1008F0008A81282F30E08B819C81FC01E20FF31F5D
:1009000010820F900F900F900F90CF91DF9108956C
:10091000DF93CF9300D00F92CDB7DEB70E94730361
:100920000E9489038B830E9494038A830E949F0301
:080930008983F6CFF894FFCF94
:00000001FF
