:100000000C942A000C943F000C943F000C943F0089
:100010000C943F000C943F000C943F000C943F0064
:100020000C943F000C943F000C943F000C943F0054
:100030000C943F000C943F000C943F000C943F0044
:100040000C943F000C943F000C943F000C943F0034
:100050000C943F0011241FBECFE5D8E0DEBFCDBF1A
:1000600011E0A0E6B0E0E0E2F9E202C005900D92F6
:10007000A037B107D9F70E9405110C948E140C9487
:100080000000EF92FF920F931F937B018C0120E001
:1000900030E040E05FE40E94410388238CF0C80117
:1000A000B70120E030E040E05FE40E94B9010E9427
:1000B000FF039B01AC01205030404040504806C037
:1000C000C801B7010E94FF039B01AC01B901CA013D
:1000D0001F910F91FF90EF900895A0E0B0E0E3E74B
:1000E000F0E00C94B611DC012B01FA019C919230E6
:1000F00008F439C1EB018881823008F433C19430AF
:1001000069F4843009F02FC111969C91119789816F
:10011000981709F428C1A8E6B0E025C1843009F495
:1001200021C18230A9F4923009F01DC19A01AD01BC
:1001300088E0EA010990AE01E90109929E0181502F
:10014000C1F7E201898111969C918923818308C1BD
:10015000923009F407C112962D903C901397EB0151
:100160008A819B811496AD90BD90CD90DC901797BD
:10017000EC80FD800E811F819101281B390BB90194
:1001800037FF04C066277727621B730B6032710547
:100190000CF061C0121613066CF537014801062EEB
:1001A00004C096948794779467940A94D2F721E0D8
:1001B00030E040E050E004C0220F331F441F551FC1
:1001C0006A95D2F721503040404050402E213F21C7
:1001D00040235123211531054105510521F021E02E
:1001E00030E040E050E079018A01E628F72808294C
:1001F00019293CC0232BD1F1260E371E35014601AB
:10020000062E04C096948794779467940A94D2F744
:1002100021E030E040E050E004C0220F331F441FD3
:10022000551F6A95D2F721503040404050402A2156
:100230003B214C215D21211531054105510521F05E
:1002400021E030E040E050E059016A01A628B728DB
:10025000C828D9280BC0821593052CF01C01AA24AC
:10026000BB24650103C0EE24FF24870111969C91F5
:10027000D20111968C91981709F445C0992339F051
:10028000A80197012A193B094C095D0906C0A6017E
:1002900095012E193F09400B510B57FD08C01182E3
:1002A0003382228224833583468357831DC081E0B5
:1002B00081833382228288279927DC01821B930B5A
:1002C000A40BB50B84839583A683B7830DC0220F3F
:1002D000331F441F551F24833583468357838281F0
:1002E000938101979383828324813581468157814D
:1002F000DA01C9010197A109B1098F5F9F4FAF4F83
:10030000BF4328F30BC0918333822282EA0CFB1C8B
:100310000C1D1D1DE482F5820683178383E0808314
:10032000248135814681578157FF1AC0C901AA2708
:1003300097FDA095BA2F81709070A070B0705695FF
:10034000479537952795822B932BA42BB52B848328
:100350009583A683B7838281938101969383828359
:10036000DF0101C0D201CD01CDB7DEB7E2E10C94CF
:10037000D211A0E2B0E0EFEBF1E00C94C21169837E
:100380007A838B839C832D833E834F835887E9E058
:10039000EE2EF12CEC0EFD1ECE010196B7010E944F
:1003A000F0058E010F5E1F4FCE010596B8010E9429
:1003B000F0058A8991E089278A8BC701B801AE01CF
:1003C000475E5F4F0E946D000E941B05A096E6E00D
:1003D0000C94DE11A0E2B0E0E0EFF1E00C94C21169
:1003E00069837A838B839C832D833E834F835887D5
:1003F000F9E0EF2EF12CEC0EFD1ECE010196B701B7
:100400000E94F0058E010F5E1F4FCE010596B801C8
:100410000E94F005C701B801AE01475E5F4F0E9420
:100420006D000E941B05A096E6E00C94DE11A0E290
:10043000B0E0EDE1F2E00C94B61169837A838B832E
:100440009C832D833E834F835887CE010196BE0146
:10045000675F7F4F0E94F005CE010596BE016F5E7B
:100460007F4F0E94F0059985923088F0898982300B
:10047000C8F0943019F4823051F404C0843029F467
:10048000923081F488E690E0C6C0923049F420E0D2
:100490009A858A89981321E02A87CE010996BBC0E4
:1004A000823049F420E09A858A89981321E02A8BCA
:1004B000CE014196B0C02D843E844F8458886D880B
:1004C0007E888F88988CEE24FF248701AA24BB2481
:1004D000650140E050E060E070E0E0E0F0E0C10184
:1004E00081709070892BE9F0E60CF71C081D191D2E
:1004F0009A01AB012A0D3B1D4C1D5D1D80E090E073
:10050000A0E0B0E0E614F7040805190520F481E046
:1005100090E0A0E0B0E0BA01A901480F591F6A1F9E
:100520007B1FAA0CBB1CCC1CDD1C97FE08C081E005
:1005300090E0A0E0B0E0A82AB92ACA2ADB2A3196C6
:10054000E032F10549F0660C771C881C991C569422
:10055000479437942794C3CFFA85EA892B893C893D
:100560008B859C85280F391F2E5F3F4F17C0CA010E
:1005700081709070892B61F016950795F794E79438
:1005800080E090E0A0E0B0E8E82AF92A0A2B1B2BD3
:1005900076956795579547952F5F3F4F77FDE7CF46
:1005A0000CC0440F551F661F771F17FD4160EE0CEE
:1005B000FF1C001F111F21503040403090E05907B0
:1005C00090E0690790E4790760F32B8F3C8FDB01A3
:1005D000CA018F779070A070B07080349105A1052A
:1005E000B10561F447FD0AC0E114F10401051105EC
:1005F00029F0405C5F4F6F4F7F4F40781A8EFE1797
:1006000011F081E08A8F4D8F5E8F6F8F78A383E02A
:10061000898FCE0149960E941B05A096E2E10C94B9
:10062000D211A8E1B0E0E7E1F3E00C94C2116983D4
:100630007A838B839C832D833E834F83588789E005
:10064000E82EF12CEC0EFD1ECE010196B7010E94A2
:10065000F0058E010F5E1F4FCE010596B8010E9476
:10066000F0058985823040F08989823028F0C70101
:10067000B8010E94680601C08FEF6896E6E00C940E
:10068000DE11A8E1B0E0E7E4F3E00C94C211698365
:100690007A838B839C832D833E834F83588789E0A5
:1006A000E82EF12CEC0EFD1ECE010196B7010E9442
:1006B000F0058E010F5E1F4FCE010596B8010E9416
:1006C000F0058985823040F08989823028F0C701A1
:1006D000B8010E94680601C08FEF6896E6E00C94AE
:1006E000DE11A8E1B0E0E7E7F3E00C94C211698302
:1006F0007A838B839C832D833E834F83588789E045
:10070000E82EF12CEC0EFD1ECE010196B7010E94E1
:10071000F0058E010F5E1F4FCE010596B8010E94B5
:10072000F0058985823040F08989823028F0C70140
:10073000B8010E94680601C081E06896E6E00C946A
:10074000DE11A8E0B0E0E7EAF3E00C94BF119B01F2
:10075000AC0183E08983DA01C9018827B7FD83955D
:100760009927AA27BB27B82E211531054105510528
:1007700019F482E089833AC08823A9F0203080E010
:10078000380780E0480780E8580729F460E070E007
:1007900080E09FEC30C0EE24FF248701E21AF30AC8
:1007A000040B150B02C079018A018EE1C82ED12CF1
:1007B000DC82CB82ED82FE820F831887C801B701ED
:1007C0000E94CC0401971816190684F4082E04C060
:1007D000EE0CFF1C001F111F0A94D2F7ED82FE825F
:1007E0000F831887C81AD90ADC82CB82BA82CE015D
:1007F00001960E941B052896E9E00C94DB11ACE001
:10080000B0E0E5E0F4E00C94C61169837A838B8351
:100810009C83CE010196BE016B5F7F4F0E94F00565
:100820008D81823061F1823050F1843021F48E81EB
:10083000882351F12EC02F81388537FD20C06E816D
:100840002F3131051CF06623F9F023C08EE190E0D2
:10085000821B930B29853A854B855C8504C0569590
:100860004795379527958A95D2F76623B1F050952D
:100870004095309521953F4F4F4F5F4F0EC020E080
:1008800030E040E050E009C02FEF3FEF4FEF5FE76F
:1008900004C020E030E040E050E8B901CA012C96E5
:1008A000E2E00C94E211A8E0B0E0E9E5F4E00C9499
:1008B000BE117B018C01611571058105910519F44B
:1008C00082E0898360C083E089838EE1C82ED12CC9
:1008D000DC82CB82ED82FE820F831887C801B701CC
:1008E0000E94CC04FC013197F7FF3BC0222733273D
:1008F0002E1B3F0B57016801022E04C0D694C794EB
:10090000B794A7940A94D2F740E050E060E070E01A
:1009100081E090E0A0E0B0E004C0880F991FAA1F1A
:10092000BB1F2A95D2F70197A109B1098E219F21FA
:10093000A023B1230097A105B10521F041E050E0CB
:1009400060E070E04A295B296C297D294D835E8334
:100950006F8378878EE190E08E1B9F0B9C838B8347
:1009600012C0309781F00E2E04C0EE0CFF1C001F49
:10097000111F0A94D2F7ED82FE820F831887CE1AD8
:10098000DF0ADC82CB821A82CE0101960E941B050F
:100990002896EAE00C94DA11EF92FF920F931F93DE
:1009A0007B018C0180E0E81680E0F80681E0080712
:1009B00080E0180788F48FEFE816F10401051105AF
:1009C00031F028F088E090E0A0E0B0E017C080E0CF
:1009D00090E0A0E0B0E012C080E0E81680E0F80609
:1009E00080E0080781E0180728F088E190E0A0E0A7
:1009F000B0E004C080E190E0A0E0B0E020E230E0B0
:100A000040E050E0281B390B4A0B5B0B04C01695E5
:100A10000795F794E7948A95D2F7F701E059FF4FCD
:100A20008081281B310941095109C9011F910F918A
:100A3000FF90EF900895DF92EF92FF920F931F9334
:100A4000FC01E480F58006811781D18080818230AD
:100A500048F480E090E0A0E1B0E0E82AF92A0A2B0F
:100A60001B2BA5C0843009F49FC0823021F4EE24F2
:100A7000FF24870105C0E114F1040105110519F4F3
:100A8000E0E0F0E096C0628173819FEF6238790701
:100A90000CF05BC022E83FEF261B370B2A313105F3
:100AA0002CF020E030E040E050E02AC0B801A7017F
:100AB000022E04C076956795579547950A94D2F70C
:100AC00081E090E0A0E0B0E004C0880F991FAA1F69
:100AD000BB1F2A95D2F70197A109B1098E219F2149
:100AE000A023B1230097A105B10521F081E090E09A
:100AF000A0E0B0E09A01AB01282B392B4A2B5B2BED
:100B0000DA01C9018F779070A070B07080349105C0
:100B1000A105B10539F427FF09C0205C3F4F4F4FB5
:100B20005F4F04C0215C3F4F4F4F5F4FE0E0F0E06C
:100B30002030A0E03A07A0E04A07A0E45A0710F0EE
:100B4000E1E0F0E079018A0127C06038710564F5C1
:100B5000FB01E158FF4FD801C7018F779070A0705B
:100B6000B07080349105A105B10539F4E7FE0DC0E0
:100B700080E490E0A0E0B0E004C08FE390E0A0E06B
:100B8000B0E0E80EF91E0A1F1B1F17FF05C01695DF
:100B90000795F794E794319687E016950795F794B3
:100BA000E7948A95D1F705C0EE24FF248701EFEF83
:100BB000F0E06E2F679566276795902F9F77D79403
:100BC000DD24D7948E2F8695492F462B582F5D29EB
:100BD000B701CA011F910F91FF90EF90DF90089528
:100BE000FC01DB01408151812281622F6F7770E02F
:100BF000221F2227221F9381892F880F822B282FC3
:100C000030E0991F9927991F11969C9311972115F0
:100C10003105A9F5411551056105710511F482E011
:100C200037C082E89FEF13969C938E9312979A0198
:100C3000AB0167E0220F331F441F551F6A95D1F7A0
:100C400083E08C930DC0220F331F441F551F129653
:100C50008D919C911397019713969C938E93129765
:100C6000203080E0380780E0480780E4580758F3D8
:100C700014962D933D934D935C93179708952F3FB2
:100C8000310579F4411551056105710519F484E0C8
:100C90008C93089564FF03C081E08C9312C01C9272
:100CA00010C02F57304013963C932E93129783E039
:100CB0008C9387E0440F551F661F771F8A95D1F7E5
:100CC000706414964D935D936D937C93179708957C
:100CD0001F93DC01FB019C91923008F447C0808196
:100CE000823008F443C0943051F411961C91843042
:100CF00099F58181682F70E0611B71093FC08430D4
:100D000021F0923031F48230B9F18181882389F168
:100D10002DC011961C9111978230F1F08181181726
:100D2000D9F412962D913C91139782819381821769
:100D3000930794F028173907BCF014968D919D9174
:100D40000D90BC91A02D24813581468157812817B3
:100D500039074A075B0718F4112341F00AC08217CC
:100D60009307A407B50740F4112319F061E070E080
:100D700005C06FEF7FEF02C060E070E0CB011F9114
:100D80000895DF93CF93CDB7DEB7A7E2B0E0E7E2F7
:100D9000F0E080818F778C93A7E2B0E0E7E2F0E0AB
:100DA000808180648C93A6E2B0E0E6E2F0E080818E
:100DB0008B7F8C93A6E2B0E0E6E2F0E080818D7F4D
:100DC0008C93A6E2B0E0E6E2F0E080818E7F8C9327
:100DD000A6E2B0E0E6E2F0E0808180688C93CF91FB
:100DE000DF910895DF93CF930F92CDB7DEB789835C
:100DF000A7E2B0E0E7E2F0E08081807E8C93A7E29A
:100E0000B0E0E7E2F0E090818981892B8C93A6E243
:100E1000B0E0E6E2F0E0808180648C9301C00000E5
:100E2000E6E2F0E0808182958F70882F90E08170FB
:100E300090700097A1F3A6E2B0E0E6E2F0E08081D6
:100E400080618C93E4E2F0E0808191810F90CF91FA
:100E5000DF910895DF93CF93CDB7DEB72F970FB60D
:100E6000F894DEBF0FBECDBF8F8782E060E041E027
:100E70000E94C80E82E061E040E00E94C80E83E05C
:100E80006F850E94831082E062E041E00E94C80EFC
:100E900080E090E0A0E0B0E48B879C87AD87BE87C0
:100EA0006B857C858D859E8520E030E04AEF54E49B
:100EB0000E941702DC01CB018F839887A987BA872C
:100EC0006F81788589859A8520E030E040E85FE38E
:100ED0000E94710388232CF481E090E09E838D832F
:100EE0003FC06F81788589859A8520E03FEF4FE785
:100EF00057E40E94110318164CF56B857C858D858F
:100F00009E8520E030E040E251E40E941702DC01BF
:100F1000CB01BC01CD010E944100DC01CB019E83CD
:100F20008D830FC088EC90E09C838B838B819C81A8
:100F30000197F1F79C838B838D819E8101979E831E
:100F40008D838D819E81009769F714C06F817885AC
:100F500089859A850E944100DC01CB019E838D83A7
:100F60008D819E819A83898389819A810197F1F786
:100F70009A83898382E062E040E00E94C80E2F9647
:100F80000FB6F894DEBF0FBECDBFCF91DF910895AD
:100F9000DF93CF93CDB7DEB72F970FB6F894DEBFB0
:100FA0000FBECDBF8F8782E060E040E00E94C80E98
:100FB00082E061E040E00E94C80E83E06F850E94FD
:100FC000831082E062E041E00E94C80E80E090E081
:100FD000A0E0B0E48B879C87AD87BE876B857C855E
:100FE0008D859E8520E030E04AEF54E40E94170290
:100FF000DC01CB018F839887A987BA876F817885B9
:1010000089859A8520E030E040E85FE30E94710323
:1010100088232CF481E090E09E838D833FC06F8114
:10102000788589859A8520E03FEF4FE757E40E9455
:10103000110318164CF56B857C858D859E8520E007
:1010400030E040E251E40E941702DC01CB01BC0118
:10105000CD010E944100DC01CB019E838D830FC036
:1010600088EC90E09C838B838B819C810197F1F7C6
:101070009C838B838D819E8101979E838D838D813F
:101080009E81009769F714C06F81788589859A855C
:101090000E944100DC01CB019E838D838D819E8166
:1010A0009A83898389819A810197F1F79A83898349
:1010B00082E062E040E00E94C80E2F960FB6F894DE
:1010C000DEBF0FBECDBFCF91DF910895DF93CF93E9
:1010D000CDB7DEB72E970FB6F894DEBF0FBECDBFEB
:1010E00083E06FEF0E94421082E060E041E00E94E6
:1010F000C80D82E061E041E00E94C80D82E062E03C
:1011000041E00E94C80D80E090E0A0E2B2E48B874D
:101110009C87AD87BE876B857C858D859E8520E00D
:1011200030E04AEF54E40E941702DC01CB018F83C8
:101130009887A987BA876F81788589859A8520E005
:1011400030E040E85FE30E94710388232CF481E0E3
:1011500090E09E838D833FC06F81788589859A85D5
:1011600020E03FEF4FE757E40E94110318164CF5BB
:101170006B857C858D859E8520E030E040E251E4E2
:101180000E941702DC01CB01BC01CD010E9441008D
:10119000DC01CB019E838D830FC088EC90E09C83A3
:1011A0008B838B819C810197F1F79C838B838D814D
:1011B0009E8101979E838D838D819E81009769F723
:1011C00014C06F81788589859A850E944100DC0171
:1011D000CB019E838D838D819E819A8389838981B2
:1011E0009A810197F1F79A83898388E30E94C8075F
:1011F0008FE00E94C80781E00E94C8072E960FB6B4
:10120000F894DEBF0FBECDBFCF91DF910895DF937D
:10121000CF9300D00F92CDB7DEB79B838A8319821C
:101220000EC08981282F30E08A819B81FC01E20F6A
:10123000F31F80810E942A0789818F5F89838981BA
:10124000282F30E08A819B81FC01E20FF31F80810F
:10125000882339F70F900F900F90CF91DF91089569
:101260000F931F93DF93CF93CDB7DEB760970FB681
:10127000F894DEBF0FBECDBF6D877E878F87988BBA
:101280001A822EC08A81082F10E08D859E85AF8539
:10129000B8892AE030E040E050E0BC01CD010E9476
:1012A0009411DC01CB01282F205DCE010396FC01B7
:1012B000E00FF11F20838D859E85AF85B8892AE0D8
:1012C00030E040E050E0BC01CD010E949411DA0111
:1012D000C9018D879E87AF87B88B8A818F5F8A838C
:1012E0008D859E85AF85B8898A309105A105B105A8
:1012F00048F68A81282F30E08D85482F405DCE0149
:101300000396FC01E20FF31F40838A81898310C09A
:101310008981282F332727FD3095CE010396FC01C4
:10132000E20FF31F80810E942A07898181508983FF
:10133000898188236CF760960FB6F894DEBF0FBEE4
:10134000CDBFCF91DF911F910F910895DF93CF9380
:1013500000D00F92CDB7DEB78A836B838B81882351
:1013600019F48A81898306C08B81813019F48A81BE
:10137000805C898389818068898389810E94C8070C
:101380000F900F900F90CF91DF910895DF93CF933F
:10139000CDB7DEB763970FB6F894DEBF0FBECDBFF3
:1013A0009B8B8A8B198A03C089898F5F898B898976
:1013B000282F30E08A899B89FC01E20FF31F80818E
:1013C000882391F789898195888BB2C081E00E943A
:1013D000C807888988232CF0888960E00E94A609C4
:1013E00007C08889882324F480E060E00E94A60971
:1013F0001F8625C08F85282F30E08889992787FD93
:101400009095820F931F9923BCF08F85282F30E091
:101410008889992787FD9095820F931F80319105C8
:101420005CF48F85282F30E08A899B89FC01E20FCC
:10143000F31F80810E942A078F858F5F8F879F858A
:1014400089899817B8F280E090E0A6E9B3E48B8729
:101450009C87AD87BE876B857C858D859E8520E0CA
:1014600030E04AEF54E40E941702DC01CB018F8385
:101470009887A987BA876F81788589859A8520E0C2
:1014800030E040E85FE30E94710388232CF481E0A0
:1014900090E09E838D833FC06F81788589859A8592
:1014A00020E03FEF4FE757E40E94110318164CF578
:1014B0006B857C858D859E8520E030E040E251E49F
:1014C0000E941702DC01CB01BC01CD010E9441004A
:1014D000DC01CB019E838D830FC088EC90E09C8360
:1014E0008B838B819C810197F1F79C838B838D810A
:1014F0009E8101979E838D838D819E81009769F7E0
:1015000014C06F81788589859A850E944100DC012D
:10151000CB019E838D838D819E819A83898389816E
:101520009A810197F1F79A83898388898F5F888BE5
:10153000888981310CF44ACF63960FB6F894DEBFE8
:101540000FBECDBFCF91DF910895DF93CF93CDB77D
:10155000DEB763970FB6F894DEBF0FBECDBF9B8B8F
:101560008A8B198A03C089898F5F898B8989282F83
:1015700030E08A899B89FC01E20FF31F8081882378
:1015800091F780E1888BAFC081E00E94C80788890D
:1015900088232CF0888960E00E94A60904C080E0BE
:1015A00060E00E94A6091F8625C08F85282F30E0A5
:1015B0008889992787FD9095820F931F9923BCF006
:1015C0008F85282F30E08889992787FD9095820F95
:1015D000931F803191055CF48F85282F30E08A8934
:1015E0009B89FC01E20FF31F80810E942A078F85EF
:1015F0008F5F8F879F8589899817B8F280E090E088
:10160000A6E9B3E48B879C87AD87BE876B857C8515
:101610008D859E8520E030E04AEF54E40E94170259
:10162000DC01CB018F839887A987BA876F81788582
:1016300089859A8520E030E040E85FE30E947103ED
:1016400088232CF481E090E09E838D833FC06F81DE
:10165000788589859A8520E03FEF4FE757E40E941F
:10166000110318164CF56B857C858D859E8520E0D1
:1016700030E040E251E40E941702DC01CB01BC01E2
:10168000CD010E944100DC01CB019E838D830FC000
:1016900088EC90E09C838B838B819C810197F1F790
:1016A0009C838B838D819E8101979E838D838D8109
:1016B0009E81009769F714C06F81788589859A8526
:1016C0000E944100DC01CB019E838D838D819E8130
:1016D0009A83898389819A810197F1F79A83898313
:1016E00088898150888B8889282F332727FD30955A
:1016F0008989882F90E0909581959F4F2817390709
:101700000CF042CF63960FB6F894DEBF0FBECDBF8C
:10171000CF91DF910895DF93CF93CDB7DEB7659773
:101720000FB6F894DEBF0FBECDBF9B8B8A8B198A94
:1017300003C089898F5F898B8989282F30E08A8946
:101740009B89FC01E20FF31F8081882391F789892F
:101750008195888BC6C081E00E94C807888988234C
:10176000CCF088898C8B8889982F91789D8B8D8976
:1017700088234CF49D8991509D8B8D898E6F8D8B24
:101780009D899F5F9D8B8D89982F8C89692F0E94E1
:10179000A60907C08889882324F480E060E00E94BD
:1017A000A6091F8625C08F85282F30E088899927B4
:1017B00087FD9095820F931F9923BCF08F85282F6A
:1017C00030E08889992787FD9095820F931F80319B
:1017D00091055CF48F85282F30E08A899B89FC0174
:1017E000E20FF31F80810E942A078F858F5F8F870A
:1017F0009F8589899817B8F280E090E0A6E9B3E464
:101800008B879C87AD87BE876B857C858D859E8504
:1018100020E030E04AEF54E40E941702DC01CB01E3
:101820008F839887A987BA876F81788589859A85FC
:1018300020E030E040E85FE30E94710388232CF44D
:1018400081E090E09E838D833FC06F81788589859C
:101850009A8520E03FEF4FE757E40E9411031816E6
:101860004CF56B857C858D859E8520E030E040E2DF
:1018700051E40E941702DC01CB01BC01CD010E94A2
:101880004100DC01CB019E838D830FC088EC90E08A
:101890009C838B838B819C810197F1F79C838B8345
:1018A0008D819E8101979E838D838D819E8100977E
:1018B00069F714C06F81788589859A850E944100F7
:1018C000DC01CB019E838D838D819E819A838983E8
:1018D00089819A810197F1F79A83898388898F5F3B
:1018E000888B888981310CF436CF65960FB6F894D1
:1018F000DEBF0FBECDBFCF91DF910895DF93CF93B1
:10190000CDB7DEB72E970FB6F894DEBF0FBECDBFB2
:1019100081E00E94C80780E090E0A0E0B0E48B87FF
:101920009C87AD87BE876B857C858D859E8520E0F5
:1019300030E04AEF54E40E941702DC01CB018F83B0
:101940009887A987BA876F81788589859A8520E0ED
:1019500030E040E85FE30E94710388232CF481E0CB
:1019600090E09E838D833FC06F81788589859A85BD
:1019700020E03FEF4FE757E40E94110318164CF5A3
:101980006B857C858D859E8520E030E040E251E4CA
:101990000E941702DC01CB01BC01CD010E94410075
:1019A000DC01CB019E838D830FC088EC90E09C838B
:1019B0008B838B819C810197F1F79C838B838D8135
:1019C0009E8101979E838D838D819E81009769F70B
:1019D00014C06F81788589859A850E944100DC0159
:1019E000CB019E838D838D819E819A83898389819A
:1019F0009A810197F1F79A8389832E960FB6F8940E
:101A0000DEBF0FBECDBFCF91DF910895DF93CF939F
:101A10000F92CDB7DEB7898389818C3119F0898126
:101A2000883119F489810E94C8070F90CF91DF9106
:101A30000895DF93CF9300D000D0CDB7DEB78A836F
:101A40007C836B838A818830F8F48A81882F90E0C8
:101A5000880F991F880F991F880F991F80640E9413
:101A6000C80719820EC08981282F30E08B819C81A4
:101A7000FC01E20FF31F80810E942A0789818F5F9A
:101A800089838981883078F30F900F900F900F90A1
:101A9000CF91DF910895DF93CF930F92CDB7DEB74B
:101AA000898389810E942A070F90CF91DF91089541
:101AB000DF93CF93CDB7DEB76C970FB6F894DEBF48
:101AC0000FBECDBF698F7A8F8B8F9C8F698D7A8D7A
:101AD0008B8D9C8D0E94FF03DC01CB019C838B834B
:101AE0008B819C81AA2797FDA095BA2FBC01CD01BF
:101AF0000E94A1039B01AC01698D7A8D8B8D9C8D19
:101B00000E94B901DC01CB01BC01CD0120E030E035
:101B100048EC52E40E941702DC01CB01BC01CD016C
:101B20000E94FF03DC01CB019A8389838DB79EB7A6
:101B300008970FB6F8949EBF0FBE8DBFEDB7FEB7E6
:101B40003196CE0105969183808380E690E0938361
:101B500082838B819C819583848389819A819783F9
:101B600086830E94ED118DB79EB708960FB6F89444
:101B70009EBF0FBE8DBFCE0105960E9407096C96D1
:101B80000FB6F894DEBF0FBECDBFCF91DF910895A1
:101B9000DF93CF93CDB7DEB727970FB6F894DEBFAC
:101BA0000FBECDBF89836A834B838B81882309F065
:101BB00074C08981282F30E03F832E838E819F81DE
:101BC0008130910559F12E813F81223031052CF46D
:101BD0008E819F81009769F0D2C02E813F81223093
:101BE000310589F18E819F818330910509F440C0D0
:101BF000C6C0AAE3B0E0EAE3F0E08081482F8A8122
:101C0000282F30E081E090E0022E02C0880F991F5B
:101C10000A94E2F7809584238C93B1C0A7E3B0E0E7
:101C2000E7E3F0E08081482F8A81282F30E081E0CF
:101C300090E0022E02C0880F991F0A94E2F7809567
:101C400084238C939CC0A4E3B0E0E4E3F0E08081C3
:101C5000482F8A81282F30E081E090E0022E02C0D8
:101C6000880F991F0A94E2F7809584238C9387C08C
:101C7000A1E3B0E0E1E3F0E08081482F8A81282FE2
:101C800030E081E090E0022E02C0880F991F0A9494
:101C9000E2F7809584238C9372C08B81813009F0A8
:101CA0006EC08981282F30E03D832C838C819D81FB
:101CB0008130910549F12C813D81223031052CF490
:101CC0008C819D81009761F05AC02C813D8122302A
:101CD000310571F18C819D8183309105E9F14FC00F
:101CE000AAE3B0E0EAE3F0E08081482F8A81282F60
:101CF00030E081E090E0022E02C0880F991F0A9424
:101D0000E2F7842B8C933BC0A7E3B0E0E7E3F0E07D
:101D10008081482F8A81282F30E081E090E0022ED8
:101D200002C0880F991F0A94E2F7842B8C9327C076
:101D3000A4E3B0E0E4E3F0E08081482F8A81282F1B
:101D400030E081E090E0022E02C0880F991F0A94D3
:101D5000E2F7842B8C9313C0A1E3B0E0E1E3F0E061
:101D60008081482F8A81282F30E081E090E0022E88
:101D700002C0880F991F0A94E2F7842B8C93279650
:101D80000FB6F894DEBF0FBECDBFCF91DF9108959F
:101D9000DF93CF93CDB7DEB727970FB6F894DEBFAA
:101DA0000FBECDBF89836A834B838B81882309F063
:101DB00074C08981282F30E03F832E838E819F81DC
:101DC0008130910559F12E813F81223031052CF46B
:101DD0008E819F81009769F0D2C02E813F81223091
:101DE000310589F18E819F818330910509F440C0CE
:101DF000C6C0ABE3B0E0EBE3F0E08081482F8A811E
:101E0000282F30E081E090E0022E02C0880F991F59
:101E10000A94E2F7809584238C93B1C0A8E3B0E0E4
:101E2000E8E3F0E08081482F8A81282F30E081E0CC
:101E300090E0022E02C0880F991F0A94E2F7809565
:101E400084238C939CC0A5E3B0E0E5E3F0E08081BF
:101E5000482F8A81282F30E081E090E0022E02C0D6
:101E6000880F991F0A94E2F7809584238C9387C08A
:101E7000A2E3B0E0E2E3F0E08081482F8A81282FDE
:101E800030E081E090E0022E02C0880F991F0A9492
:101E9000E2F7809584238C9372C08B81813009F0A6
:101EA0006EC08981282F30E03D832C838C819D81F9
:101EB0008130910549F12C813D81223031052CF48E
:101EC0008C819D81009761F05AC02C813D81223028
:101ED000310571F18C819D8183309105E9F14FC00D
:101EE000ABE3B0E0EBE3F0E08081482F8A81282F5C
:101EF00030E081E090E0022E02C0880F991F0A9422
:101F0000E2F7842B8C933BC0A8E3B0E0E8E3F0E079
:101F10008081482F8A81282F30E081E090E0022ED6
:101F200002C0880F991F0A94E2F7842B8C9327C074
:101F3000A5E3B0E0E5E3F0E08081482F8A81282F17
:101F400030E081E090E0022E02C0880F991F0A94D1
:101F5000E2F7842B8C9313C0A2E3B0E0E2E3F0E05D
:101F60008081482F8A81282F30E081E090E0022E86
:101F700002C0880F991F0A94E2F7842B8C9327964E
:101F80000FB6F894DEBF0FBECDBFCF91DF9108959D
:101F9000DF93CF9300D000D00F92CDB7DEB78A8306
:101FA0006B8319828A81282F30E03D832C834C81FA
:101FB0005D814130510541F18C819D8182309105D7
:101FC00034F42C813D812115310561F052C04C81E2
:101FD0005D814230510551F18C819D8183309105A5
:101FE000B9F147C0E9E3F0E08081282F30E08B8130
:101FF000882F90E0A90102C0559547958A95E2F790
:10200000CA018170898335C0E6E3F0E08081282F22
:1020100030E08B81882F90E0A90102C0559547954B
:102020008A95E2F7CA018170898323C0E3E3F0E077
:102030008081282F30E08B81882F90E0A90102C099
:10204000559547958A95E2F7CA018170898311C039
:10205000E0E3F0E08081282F30E08B81882F90E052
:10206000A90102C0559547958A95E2F7CA0181708A
:10207000898389810F900F900F900F900F90CF91CF
:10208000DF910895DF93CF9300D000D0CDB7DEB7B6
:1020900089836A838981282F30E03C832B838B815D
:1020A0009C8181309105D1F02B813C81223031051A
:1020B0002CF48B819C81009761F01EC02B813C81A8
:1020C0002230310581F08B819C818330910581F034
:1020D00013C0EAE3F0E08A8180830EC0E7E3F0E01A
:1020E0008A81808309C0E4E3F0E08A81808304C0B0
:1020F000E1E3F0E08A8180830F900F900F900F90C2
:10210000CF91DF910895DF93CF9300D000D0CDB76A
:10211000DEB789836A838981282F30E03C832B8353
:102120008B819C8181309105D1F02B813C812230C3
:1021300031052CF48B819C81009761F01EC02B81AE
:102140003C812230310581F08B819C818330910567
:1021500081F013C0EBE3F0E08A8180830EC0E8E3F6
:10216000F0E08A81808309C0E5E3F0E08A81808322
:1021700004C0E2E3F0E08A8180830F900F900F901B
:102180000F90CF91DF910895DF93CF9300D000D0CF
:10219000CDB7DEB78A838A81282F30E03C832B833A
:1021A0008B819C8181309105D1F02B813C81223043
:1021B00031052CF48B819C81009761F01EC02B812E
:1021C0003C812230310581F08B819C8183309105E7
:1021D00081F013C0EBE3F0E0808189830EC0E8E377
:1021E000F0E08081898309C0E5E3F0E080818983A4
:1021F00004C0E2E3F0E08081898389810F900F9031
:102200000F900F90CF91DF910895DF93CF9300D07F
:102210000F92CDB7DEB781E065E041E00E94C80DC6
:1022200081E066E040E00E94C80D81E067E041E0A7
:102230000E94C80D81E064E041E00E94C80D80E08A
:1022400060E040E00E94C80D0E9466080E94C1063E
:102250000E944F1180E00E94F2069B838A838A814C
:102260009B81CC01A0E0B0E0BC01CD010E945304F1
:10227000DC01CB01BC01CD0125E732E04AEF5EE392
:102280000E941702DC01CB01BC01CD010E9441007C
:10229000DC01CB01898389810E947911DBCFDF9337
:1022A000CF93CDB7DEB7ADE2B0E0EDE2F0E08081F4
:1022B00080618C93ADE2B0E0EDE2F0E080818E7F52
:1022C0008C93ADE2B0E0EDE2F0E080818D7F8C9305
:1022D000AEE2B0E0EEE2F0E080818E7F8C93ADE282
:1022E000B0E0EDE2F0E0808180648C93CF91DF91EB
:1022F0000895DF93CF930F92CDB7DEB78983EFE2D6
:10230000F0E08981808301C00000EEE2F0E080818E
:10231000881F8827881F8130B9F7EFE2F0E08081BD
:102320000F90CF91DF910895A1E21A2EAA1BBB1B3B
:10233000FD010DC0AA1FBB1FEE1FFF1FA217B30791
:10234000E407F50720F0A21BB30BE40BF50B661FA7
:10235000771F881F991F1A9469F76095709580956B
:1023600090959B01AC01BD01CF0108952F923F9242
:102370004F925F926F927F928F929F92AF92BF9295
:10238000CF92DF92EF92FF920F931F93CF93DF9341
:10239000CDB7DEB7CA1BDB0B0FB6F894DEBF0FBE9E
:1023A000CDBF09942A88398848885F846E847D84EB
:1023B0008C849B84AA84B984C884DF80EE80FD80ED
:1023C0000C811B81AA81B981CE0FD11D0FB6F89463
:1023D000DEBF0FBECDBFED010895AEE0B0E0E3EF8C
:1023E000F1E10C94C4110D891E8986E08C831A8357
:1023F00009838FEF9FE79E838D839E01275E3F4F6A
:10240000CE0101966F89788DA9010E9411122F814A
:102410003885020F131FF80110822E96E4E00C9409
:10242000E011ABE0B0E0E7E1F2E10C94B6113C0161
:102430002B015A01FC0117821682838181FD03C0A2
:102440006FEF7FEFC6C19AE0892E1E010894211C10
:10245000311CF3012381F20123FD859123FF81913A
:102460002F01882309F4B2C1853239F423FD859107
:1024700023FF81912F01853229F490E0B3010E945E
:102480000414E7CF982FFF24EE249924FFE1FF15D1
:10249000D0F09B3269F09C3228F4903259F093329C
:1024A00091F40EC09D3249F0903369F441E024C0AC
:1024B00052E0F52A84E0F82A28C098E0F92A25C0DD
:1024C000E0E1FE2A22C0F7FC29C0892F80538A3020
:1024D00070F4F6FE05C0989C902C1124980E15C03F
:1024E000E89CE02C1124E80EF0E2FF2A0EC09E3298
:1024F00029F4F6FC6BC140E4F42A07C09C3619F4B9
:1025000050E8F52A02C0983649F4F20123FD95916E
:1025100023FF91912F01992309F0B8CF892F85547A
:10252000833018F08052833038F444E050E0A40E39
:10253000B51E5FE359830FC0933631F0933779F0BE
:10254000933509F056C020C0F5018081898342E0AF
:1025500050E0A40EB51E610101E010E012C0F501CB
:10256000C080D180F6FC03C06FEF7FEF02C0692D01
:1025700070E042E050E0A40EB51EC6010E94F913BF
:102580008C015FE7F52214C0F501C080D180F6FC14
:1025900003C06FEF7FEF02C0692D70E042E050E0B2
:1025A000A40EB51EC6010E94EE138C0150E8F52A58
:1025B000F3FE07C01AC080E290E0B3010E94041449
:1025C000EA948E2D90E008171907A8F30EC0F601C3
:1025D000F7FC8591F7FE81916F0190E0B3010E94B5
:1025E0000414E110EA94015010400115110579F727
:1025F000EAC0943611F0993669F5F7FE08C0F50186
:10260000208131814281538184E090E00AC0F5014C
:10261000808191819C01442737FD4095542F82E0B1
:1026200090E0A80EB91E9FE6F92257FF09C0509509
:102630004095309521953F4F4F4F5F4FE0E8FE2A80
:10264000CA01B901A1012AE030E00E943014D82E5D
:10265000D21840C0953729F41F2D1F7E2AE030E0A4
:102660001DC01F2D197F9F3661F0903720F49835DB
:1026700009F0ACC00FC0903739F0983709F0A6C008
:1026800004C028E030E00AC0106114FD146020E1AD
:1026900030E004C014FD166020E132E017FF08C0EE
:1026A000F501608171818281938144E050E008C02E
:1026B000F50180819181BC0180E090E042E050E032
:1026C000A40EB51EA1010E943014D82ED2188FE797
:1026D000F82EF122F6FE0BC05EEFF522D91438F485
:1026E000F4FE07C0F2FC05C08FEEF82202C01D2DDB
:1026F00001C0192DF4FE0DC0FE01ED0DF11D80810C
:10270000803319F499EEF92208C01F5FF2FE05C06C
:1027100003C08F2D867809F01F5F0F2DF3FC14C0C6
:10272000F0FE0FC01E1510F09D2C0BC09D2C9E0CB2
:10273000911A1E2D06C080E290E0B3010E9404149D
:102740001F5F1E15C0F304C01E1510F4E11A01C06E
:10275000EE2404FF0FC080E390E0B3010E94041454
:1027600002FF1DC001FD03C088E790E00EC088E5B0
:1027700090E00BC0802F867891F001FF02C08BE2C1
:1027800001C080E2F7FC8DE290E0B3010E940414E6
:1027900006C080E390E0B3010E9404149A94D91417
:1027A000C0F3DA94F101ED0DF11D808190E0B301E9
:1027B0000E940414DD20A9F706C080E290E0B30176
:1027C0000E940414EA94EE20C1F743CEF30166811F
:1027D0007781CB012B96E2E10C94D211FC0105909C
:1027E000615070400110D8F7809590958E0F9F1F13
:1027F0000895FC016150704001900110D8F7809558
:1028000090958E0F9F1F08950F931F93CF93DF9383
:102810008C01EB018B8181FF1BC082FF0DC02E81DB
:102820003F818C819D812817390764F4E881F98103
:102830000193F983E88306C0E885F985802F09951F
:10284000892B31F48E819F8101969F838E8302C0F4
:102850000FEF1FEFC801DF91CF911F910F910895E6
:10286000FA01AA27283051F1203181F1E8946F93C1
:102870006E7F6E5F7F4F8F4F9F4FAF4FB1E03ED067
:10288000B4E03CD0670F781F891F9A1FA11D680F05
:10289000791F8A1F911DA11D6A0F711D811D911D38
:1028A000A11D20D009F468943F912AE0269F1124AD
:1028B0003019305D3193DEF6CF010895462F477011
:1028C000405D4193B3E00FD0C9F7F6CF462F4F706C
:1028D000405D4A3318F0495D31FD4052419302D0CA
:1028E000A9F7EACFB4E0A695979587957795679570
:1028F000BA95C9F700976105710508959B01AC0170
:102900000A2E06945795479537952795BA95C9F796
:10291000620F731F841F951FA01D0895F894FFCFA9
:1029200025642E2530326400000000000000000005
:102930000001020203030303040404040404040466
:102940000505050505050505050505050505050537
:102950000606060606060606060606060606060617
:102960000606060606060606060606060606060607
:1029700007070707070707070707070707070707E7
:1029800007070707070707070707070707070707D7
:1029900007070707070707070707070707070707C7
:1029A00007070707070707070707070707070707B7
:1029B0000808080808080808080808080808080897
:1029C0000808080808080808080808080808080887
:1029D0000808080808080808080808080808080877
:1029E0000808080808080808080808080808080867
:1029F0000808080808080808080808080808080857
:102A00000808080808080808080808080808080846
:102A10000808080808080808080808080808080836
:102A20000808080808080808080808080808080826
:00000001FF
